:100000000C9434000C9451000C9451000C94510049
:100010000C9451000C9451000C9451000C9451001C
:100020000C9451000C9451000C9451000C9453000A
:100030000C9451000C9451000C9451000C945100FC
:100040000C9451000C9451000C9451000C945100EC
:100050000C9451000C9451000C9451000C945100DC
:100060000C9451000C94510011241FBECFEFD8E026
:10007000DEBFCDBF11E0A0E0B1E0E4E9F4E002C0F2
:1000800005900D92A230B107D9F721E0A2E0B1E0CE
:1000900001C01D92AE30B207E1F70E949F010C949F
:1000A00048020C9400001F920F920FB60F92112479
:1000B0002F933F934F935F936F937F938F939F9370
:1000C000AF93BF93EF93FF9320910C0130910D01FB
:1000D00080910401909105012B3331059CF0109221
:1000E0000D0110920C018B339105DCF501968431E2
:1000F0009105CCF122E030E088329105B4F521E0A1
:1001000030E033C02F5F3F4F30930D0120930C013F
:100110002115310541F3282B392B232BD1F5809163
:10012000020190910301883191050CF043C00196C2
:1001300090930301809302010E94DD0090930B01D4
:1001400080930A0180910201909103010E9416019F
:100150009093090180930801109207011092060103
:1001600014C090E080E030E020E09093050180939F
:1001700004013093070120930601009781F264E1A6
:1001800070E00E942002892B21F41092010110924C
:100190000001FF91EF91BF91AF919F918F917F915E
:1001A0006F915F914F913F912F910F900FBE0F90E4
:1001B0001F90189590E080E0BBCF9C010D9714F044
:1001C0002C50310920FF02C02150310915B88FEFA2
:1001D0009FEF2115310501F1A9014850510957FD43
:1001E0001FC020E230E085E090E041155105A1F00C
:1001F000BA016450710977FD09C0206184E090E084
:100200006115710549F0AB0184E090E04230510581
:100210001CF0286083E090E035B1232B25B90895C8
:10022000A90130E020E08FEF9FEFE2CF62E070E0C5
:100230000E9420020895AC0181E001C0880F6A95F8
:10024000EAF724E030E041155105C9F06FE77AE1A3
:1002500096E0615070409040E1F700C0000095B119
:10026000982795B92150310971F72FEF67EA71E6A8
:10027000215060407040E1F700C0000008956FEF2A
:100280007EE994E2615070409040E1F7E6CFAC0126
:1002900081E001C0880F6A95EAF726E030E0411559
:1002A0005105C9F06FE77AE196E0615070409040E7
:1002B000E1F700C0000095B1982795B921503109A8
:1002C00071F72FEF67EA71E6215060407040E1F767
:1002D00000C0000008956FEF7EE994E26150704025
:1002E0009040E1F7E6CFAC0181E001C0880F6A954C
:1002F000EAF728E030E041155105C9F06FE77AE1EF
:1003000096E0615070409040E1F700C0000095B168
:10031000982795B92150310971F72FEF67EA71E6F7
:10032000215060407040E1F700C0000008956FEF79
:100330007EE994E2615070409040E1F7E6CF84B1ED
:10034000886384B988E0809381008BE49CE4909377
:1003500089008093880082E080936F007894809178
:10036000810085608093810082E190E09093030199
:100370008093020189E190E090930501809304014C
:1003800015B880910201909103010E94DD009093C5
:100390000B0180930A0180910201909103010E9458
:1003A00016019093090180930801809104019091B6
:1003B00005018431910584F188978CF182E090E009
:1003C000909307018093060101E010E080910601FF
:1003D00090910701CBE1D1E0009731F0C3E7D1E084
:1003E000019711F4C7E4D1E01093010100930001DB
:1003F00060910A0170910B016F3F760799F080912F
:10040000080190910901FE010995809100019091E8
:100410000101892BD9F2ECCF90E080E0D1CF81E0CF
:1004200090E0CECF8CE390E0FFEF23ED30E3F1508E
:1004300020403040E1F700C000000197A9F7E5CF68
:1004400097FB072E16F4009407D077FD09D00E9481
:10045000340207FC05D03EF4909581959F4F089596
:10046000709561957F4F0895AA1BBB1B51E107C092
:10047000AA1FBB1FA617B70710F0A61BB70B881F34
:10048000991F5A95A9F780959095BC01CD010895C3
:04049000F894FFCF0E
:02049400010065
:00000001FF
