:100000000C9434000C9451000C9451000C94510049
:100010000C9451000C9451000C9451000C9451001C
:100020000C9451000C9451000C9451000C9453000A
:100030000C9451000C9451000C9451000C945100FC
:100040000C9451000C9451000C9451000C945100EC
:100050000C9451000C9451000C9451000C945100DC
:100060000C9451000C94510011241FBECFEFD8E026
:10007000DEBFCDBF11E0A0E0B1E0E8EAF4E002C0ED
:1000800005900D92A230B107D9F721E0A2E0B1E0CE
:1000900001C01D92AE30B207E1F70E94AC010C9492
:1000A00052020C9400001F920F920FB60F9211246F
:1000B0002F933F934F935F936F937F938F939F9370
:1000C000AF93BF93EF93FF9320910C0130910D01FB
:1000D00080910401909105012B3331059CF0109221
:1000E0000D0110920C018B339105BCF50196843102
:1000F0009105ACF122E030E08832910594F521E0E1
:1001000030E02FC02F5F3F4F30930D0120930C0143
:100110002115310541F3282B392B232BB1F5809183
:10012000020190910301883191050CF03FC00196C6
:1001300090930301809302010E94D90090930B01D8
:1001400080930A0180910201909103010E941201A3
:10015000909309018093080114C090E080E030E0A2
:1001600020E09093050180930401309307012093D0
:1001700006010097A1F264E170E00E942A02892B37
:1001800021F41092010110920001FF91EF91BF91B3
:10019000AF919F918F917F916F915F914F913F911F
:1001A0002F910F900FBE0F901F90189590E080E058
:1001B000BFCF9C010D9714F02C50310920FF02C0D5
:1001C0002150310915B88FEF9FEF2115310501F14D
:1001D000A9014850510957FD1FC020E230E085E0D9
:1001E00090E041155105A1F0BA016450710977FD05
:1001F00009C0206184E090E06115710549F0AB0110
:1002000084E090E0423051051CF0286083E090E0EB
:1002100035B1232B25B90895A90130E020E08FEFF7
:100220009FEFE2CF62E070E00E942A0208959C01F5
:10023000892B51F54FEF8EE994E241508040904078
:10024000E1F700C0000045B181E090E001C0880FF7
:100250006A95EAF7482745B9232BF1F42FEF3EE9D9
:1002600044E2215030404040E1F700C0000095B129
:10027000892785B98FEF97EA21E681509040204089
:10028000E1F700C0000008954FE78AE196E0415091
:1002900080409040E1F7D5CF2FE73AE146E021508A
:1002A00030404040E1F7E1CFAC0181E001C0880F70
:1002B0006A95EAF724E030E041155105C9F06FE78F
:1002C0007AE196E0615070409040E1F700C0000094
:1002D00095B1982795B92150310971F72FEF67EA49
:1002E00071E6215060407040E1F700C000000895C1
:1002F0006FEF7EE994E2615070409040E1F7E6CF05
:10030000AC0181E001C0880F6A95EAF726E030E091
:1003100041155105C9F06FE77AE196E061507040F0
:100320009040E1F700C0000095B1982795B92150A1
:10033000310971F72FEF67EA71E621506040704094
:10034000E1F700C0000008956FEF7EE994E261508C
:1003500070409040E1F7E6CF84B1886384B988E0CB
:10036000809381008BE49CE49093890080938800C3
:1003700082E080936F007894809181008560809303
:10038000810080E190E090930301809302018EE16F
:1003900090E0909305018093040180E190E00E9439
:1003A000D90090930B0180930A01809102019091F2
:1003B00003010E941201909309018093080180912A
:1003C0000401909105018431910584F188978CF1A5
:1003D00082E090E0909307018093060101E010E035
:1003E0008091060190910701C7E1D1E0009731F0BB
:1003F000C0E8D1E0019711F4C4E5D1E01093010108
:100400000093000160910A0170910B016F3F760724
:1004100099F08091080190910901FE010995809160
:10042000000190910101892BD9F2ECCF90E080E09E
:10043000D1CF81E090E0CECF8CE390E0FFEF23EDD1
:1004400030E3F15020403040E1F700C00000019758
:10045000A9F7E5CF97FB072E16F4009407D077FD98
:1004600009D00E943E0207FC05D03EF4909581958C
:100470009F4F0895709561957F4F0895AA1BBB1BF0
:1004800051E107C0AA1FBB1FA617B70710F0A61B94
:10049000B70B881F991F5A95A9F780959095BC01B5
:0804A000CD010895F894FFCF8F
:0204A800010051
:00000001FF
